:100000000C94C1020C94DE020C94DE020C94DE020D
:100010000C94DE020C94DE020C94DE020C94DE02E0
:100020000C94DE020C94DE020C94C11C0C947D1C1A
:100030000C94BE1D0C94DE020C94DE020C94DE02C5
:100040000C94DE020C94DE020C94DE020C94DE02B0
:100050000C94DE020C949A1D0C94DE020C94DE02C9
:100060000C94DE020C94DE020C94DE020C94DE0290
:100070000C94DE020C94DE020C94DE020C94DE0280
:100080000C94DE020C94DE020C94DE020C94DE0270
:100090000C94DE020C94DE020C94DE020C94DE0260
:1000A0000C94DE020C94DE020C94DE0205010902BF
:1000B000A10185020901A1000509190129081500FE
:1000C0002501950875018102050109300931158165
:1000D000257F95027508810609381581257F9501D0
:1000E00075088106050C0A38021581257F95017572
:1000F000088106C0C005010980A101850319012AF4
:10010000B700150126B700950175108100C0050CD8
:100110000901A101850419012AA002150126A002E6
:10012000950175108100C005010906A1018506052C
:100130000719E029E71500250195087501810205D9
:1001400007190029EF1500250195F07501810205B9
:10015000081901290595057501910295017503910D
:1001600001C00660FF0961A1010962150026FF00B8
:100170009520750881020963150026FF00952075FA
:10018000089102C005010906A101050719E029E748
:1001900015002501950875018102950175088101F9
:1001A0000507190029FF150026FF0095067508812F
:1001B000000508190129059505750191029501753C
:1001C000039101C0000000000000000000000000DA
:1001D000000000000000000000000000000000001F
:1001E00000000000000000007E0F00D4FFFFFFC7EA
:1001F0000000007800000000000000002A2B28000A
:1002000000000000000000000000000000000029C5
:10021000000000002C1E3420212224342627252E05
:10022000362D3738271E1F2021222324252633333D
:10023000362E37381F0405060708090A0B0C0D0E69
:100240000F101112131415161718191A1B1C1D2F35
:100250003130232D350405060708090A0B0C0D0E55
:100260000F101112131415161718191A1B1C1D2F15
:100270003130354C1E0F0500047F3F1F643214647B
:100280003214783C1E1E140A05000101010101010F
:10029000010101020202020202020202030303033D
:1002A000030303030404040404040405050505050D
:1002B00006060606060707070707080808080909CB
:1002C00009090A0A0A0B0B0B0C0C0C0D0D0D0E0E76
:1002D0000E0F0F0F10101111111212131314141509
:1002E0001516161717181819191A1A1B1B1C1D1D7D
:1002F0001E1E1F20202122222324242526262728D3
:1003000029292A2B2C2D2D2E2F3031323233343502
:10031000363738393A3B3C3D3E3F40414243444505
:10032000464748494A4C4D4E4F50515354555658E4
:10033000595A5B5D5E5F616264656668696B6C6D8E
:100340006F7072737577787A7B7D7E808283858704
:10035000888A8C8E8F91939596989A9C9EA0A2A342
:10036000A5A7A9ABADAFB1B3B5B7BABCBEC0C2C447
:10037000C6C9CBCDCFD1D4D6D8DBDDDFE2E4E7E907
:10038000EBEEF0F3F5F8FAFDFFFFAA7F55402223CC
:10039000252628292A2C2D2F3032333536383A3B62
:1003A0003D3E4042434547494A4C4E5051535557B4
:1003B000595A5C5E6062646668696B6D6F717375D3
:1003C00077797B7D7F81838587898A8C8E909294D3
:1003D00096989A9C9E9FA1A3A5A7A8AAACAEAFB1E0
:1003E000B3B4B6B8B9BBBCBEBFC1C2C3C5C6C7C92A
:1003F000CACBCCCDCED0D1D2D2D3D4D5D6D7D7D8E4
:10040000D9D9DADADBDBDBDCDCDCDCDCDDDDDDDD35
:10041000DCDCDCDCDCDBDBDBDADAD9D9D8D7D7D63D
:10042000D5D4D3D2D2D1D0CECDCCCBCAC9C7C6C5F4
:10043000C3C2C1BFBEBCBBB9B8B6B4B3B1AFAEAC3A
:10044000AAA8A7A5A3A19F9E9C9A98969492908EE5
:100450008C8A89878583817F7D7B79777573716FBE
:100460006D6B6968666462605E5C5A59575553519A
:10047000504E4C4A4947454342403E3D3B3A383650
:10048000353332302F2D2C2A2928262523224D00C2
:1004900052004A004B004F00510050004E00906146
:1004A000916228002A4301000100010001000100BF
:1004B0000100010001000100010001000100010034
:1004C0000100010001000100010001000100010024
:1004D000010001000100C95CC75CC55CC35CCA5C6B
:1004E000C85CC65CC45C01000100C25C010009027A
:1004F0005B00030100A0FA090400000103010100F0
:1005000009211101000122400007058103080001B3
:100510000904010002030000000921110100012269
:1005200022000705820320000107050303200001C4
:100530000904020001030000000921110100012249
:10054000B60007058403200001120100020000002C
:1005500008594D000210000102000108036D0074EB
:10056000007200000016036D0065006E00740061EB
:10057000006B006F002D007900610000000403098A
:10058000040011241FBECFEFDAE0DEBFCDBF23E0B1
:10059000A2E9B1E001C01D92A532B207E1F711E076
:1005A000A0E0B1E0E8E2FAE402C005900D92A239C1
:1005B000B107D9F70E94E51D0C94E9240C940000C2
:1005C000E8EDF0E080818E7F80831092E20010924F
:1005D000DA001092E100A0EEB0E08C9181608C9383
:1005E00080818F77808319BCA7EDB0E08C918E7FDE
:1005F0008C9380818F7E80831092F40208952091E5
:10060000E4003091E50095E6A9012091EC00822FED
:10061000817020FF06C08091E80080FF06C080E066
:1006200008952091E80022FD1AC080911A038823C2
:1006300089F0853089F08091EB0085FD0FC0209115
:10064000E4003091E50042175307F9F29150E1F6CA
:1006500084E0089582E0089583E0089581E008959C
:10066000EF92FF920F931F93CF937C018B010E9417
:10067000FF02C82F811117C08091E80085FD0BC0D3
:100680008091E8008E778093E8000E94FF02882323
:1006900099F3C82F08C0F70181917F018093F10081
:1006A0000150110949F78C2FCF911F910F91FF90A5
:1006B000EF90089580911C0387FF13C08091E8009C
:1006C00082FF06C08091E8008B778093E80004C029
:1006D00080911A038111F2CF089580911A03882323
:1006E000D9F38091E80080FFF8CF8091E8008E7701
:1006F000ECCF982F9093E900242F762F50E08917A4
:1007000031F07091EC002091ED005091F00021FD4E
:1007100007C09F5F973071F78093E90081E00895EB
:100720003091EB003E7F3093EB003091ED003D7F48
:100730003093ED003091EB0031603093EB0070931B
:10074000EC002093ED005093F0002091EE0027FD87
:10075000E0CF80E00895B0E0A0E0E1EBF3E00C949E
:100760003D23C8EDD0E088818F7E8883E7EDF0E0FF
:1007700080818160808384E082BF81E08093F40285
:1007800088818E7F888302EE10E0F801108210923B
:10079000DA0081EEC82ED12CF601108288818F7785
:1007A000888388818068888388818F7D888319BC4D
:1007B00010921A0310921B0310921903109218033F
:1007C00090EEE92EF12CF70180818B7F8083888168
:1007D0008160888342E060E080E00E947903F60156
:1007E00080818E7F8083F801808181608083808119
:1007F00088608083F70180818E7F8083888180611B
:100800008883CDB7DEB7E8E00C945923FC018091D2
:1008100022039091230386179707A0F061157105B5
:1008200029F49091E8009E779093E80090E061159C
:10083000710551F4911108C08091E80082FF34C025
:1008400080E00895BC01F2CF80911A038823C1F1A2
:100850008530C1F18091E80083FD30C08091E800CF
:1008600082FDEACF8091E80080FFE1CF8091F30024
:100870002091F200382F6115710519F028303105EB
:1008800058F091E02830310509F090E02091E8001F
:100890002E772093E800CBCF81918093F1006150B7
:1008A00071092F5F3F4FE7CF80911A03882341F0F2
:1008B000853041F08091E80083FFBECF81E008954C
:1008C00082E0089583E0089508958091F7020895E5
:1008D00087E797E7909301088093000888E19AE002
:1008E0000FB6F894A895809360000FBE90936000B7
:1008F000FFCF9C014FB7F8948091EB029091EC02EE
:10090000A091ED02B091EE024FBF821B930B0895B0
:100910002FB7F8948091EB029091EC02A091ED0238
:10092000B091EE022FBF089520911E012223C9F03D
:100930002091EF0227FF15C0E62FE695E695E69594
:10094000EE31D8F4E80FF92FF11D677021E030E0A7
:1009500001C0220F6A95EAF720958281282322831D
:100960000895FC01329608962191621303C0DF01BD
:1009700011971C92E817F907B9F708952091E8023A
:100980003091E9022817390771F09093E9028093BA
:10099000E802E091E602F091E702309721F000844E
:1009A000F185E02D099508952091E4023091E5024A
:1009B0002817390771F09093E5028093E402E091E3
:1009C000E602F091E702309721F00680F781E02DF2
:1009D00009950895E091E602F091E702309729F039
:1009E0000190F081E02D0995089580E00895FA01C5
:1009F000811101C0FB010995089508958091DF02DE
:100A0000982F9E7F29F4817082608093DF02089581
:100A10008635E8F381708465F8CFAF92BF92DF929C
:100A2000EF92FF920F931F93CF93DF93082F162F10
:100A3000E901E42FF0E0E757FD4F611110C0E491A8
:100A40005E2F4E2F4983E8835A83DF91CF911F9108
:100A50000F91FF90EF90DF90BF90AF900895E62E3A
:100A6000F12C4491D42EE42FF0E026E0829FC001C7
:100A700011242FEF30E0B9010E948423802F90E0F1
:100A8000880F991F55E5569FD001579FB00D11242F
:100A90008A1B9B0B982F990F890F5901AE18BF081D
:100AA000AE9ED001AF9EB00DBE9EB00D11245B2F47
:100AB000189F80011124012F11275901A01AB10A92
:100AC000AE9E8001AF9E100DBE9E100D11245901E7
:100AD000A81AB108AE9CC001AF9C900DBE9C900DB1
:100AE0001124892F9927281B390B2E9FC0012F9F76
:100AF000900D3E9F900D1124E92F62307105A1F0F9
:100B000050F46115710509F49DCF6130710581F0D4
:100B1000EB2F512F97CF6430710569F080F066306C
:100B2000710509F48FCFF4CFE42F4B2F592F8ACFC3
:100B3000E42F412F87CFEB2F542F492F83CF4B2FFB
:100B40005D2DE12F7FCF0E9488049C01909130029F
:100B500080913102982B21F030932D0220932C02AA
:100B60009091320280913302982B21F030932B0226
:100B700020932A02E091E602F091E702309749F0D3
:100B800082E080932E020480F581E02D8EE292E0D7
:100B90000995089540913002803F59F480913102C7
:100BA00087FF0DC01092310241110BC01092280234
:100BB00008C0813F81F48091310218169CF34423D0
:100BC00081F08091320290913302892B09F05AC052
:100BD000109227020895823F49F447FFF0CF109208
:100BE0003002809131028111ECCFE0CF833F19F4C4
:100BF0001416ACF3E4CF90913202893F29F4191610
:100C0000F4F610923202DBCF8A3F19F497FFD7CF68
:100C1000F8CF909133028B3F29F497FFD0CF1092F9
:100C20003302CDCF8C3F19F41916CCF3C8CF9CE01A
:100C3000980F953090F4845F990B21E030E0B90172
:100C400002C0660F771F8A95E2F7CB0180959091DD
:100C50002F02892380932F02B2CF8D3F31F48091F0
:100C600029028E7F80932902AACF8E3F21F48091A2
:100C700029028D7FF7CF8F3F09F0A1CF8091290204
:100C80008B7FF0CF08958091290280FD16C081FDF1
:100C900016C082FD16C0809127028823A1F08832F9
:100CA00080F428E0829FC001112468E270E00E9475
:100CB0009823862F672B39F0089582E0089584E009
:100CC000089588E0089581E008958091290280FDCB
:100CD00014C081FD14C082FD16C0809128028823B3
:100CE00081F08E3180F420E5829FC00111246EE1F5
:100CF00070E00E949823862F089584E1089588E289
:100D0000089588E0089580E50895803F31F40E94B9
:100D100065068195809331020895813F19F40E9400
:100D20006506F8CF823F31F40E9465068195809375
:100D300030020895833F19F40E946506F8CF893F79
:100D400029F40E9443068093320208958A3F21F4D9
:100D50000E9443068195F7CF8B3F31F40E944306F2
:100D600081958093330208958C3F19F40E944306C5
:100D7000F8CF9CE0980F953070F4845F990B21E0D8
:100D800030E001C0220F8A95EAF780912F02822B72
:100D900080932F0208958D3F31F480912902816064
:100DA0008093290208958E3F21F480912902826068
:100DB000F7CF8F3FB9F7809129028460F1CF80E0AF
:100DC0000895F894E82FE295EF70F0E031A1282F14
:100DD0002F7081E090E001C0880F2A95EAF7982FE4
:100DE0009095932391A392A1892B82A3789408953F
:100DF0009091EF0292FF06C0282F28712830F9F455
:100E0000877F846093FF06C0282F28712831F1F472
:100E1000877E84612091F00220FF06C0382F387150
:100E20003830D9F4877F816021FF06C0282F2871D0
:100E30002831D1F4877E816194FD877E0895282F23
:100E400024712430F9F68B7F8860DCCF282F247141
:100E5000243101F78B7E8861DDCF382F317131303D
:100E600019F78E7F8860E0CF282F2171213121F77B
:100E70008E7E8861E1CFCF93DF93EC0182389105BC
:100E8000B1F108F040C08133910509F49DC048F5E7
:100E90008932910509F48DC08A9709F49CC0C11567
:100EA00021E5D20708F0C3C0C11530E5D30708F02B
:100EB0001EC1C83ED10508F0A3C0C03ED10588F5CB
:100EC000C83AD10508F08EC0C53AD10508F007C16F
:100ED000C130D10531F1209721F1C430D10508F599
:100EE00045C08533910509F45FC0C997C1F680916B
:100EF000EF02837009F043C18091F00283FF11C0BB
:100F0000C9E2D0E00EC0833E910599F170F4803EB5
:100F1000910501F1823E910511F68091EF0282FD6B
:100F200021C0CE01DF91CF910895863E910561F1F8
:100F3000873E910571F1843E910509F0B0CF809113
:100F4000F00281FFEECF8091EF02C7EED0E084FD8A
:100F50000DC0E7CF8091EF0280FD33C09091F00289
:100F600090FFDFCFC3EED0E084FFDBCFD0E0C0E066
:100F7000D8CF8091EF0282FDFFC09091F00290FDEA
:100F8000FEC084FFCECFF2CF8091EF0283FDDDCF94
:100F9000C8CF8091EF0283FDF5C09091F00291FFE0
:100FA000F0CFC4EED0E0BDCF8091EF0285FFB9CF86
:100FB000A7CF8091EF0285FDE8C08091F00283FF0A
:100FC000B0CFC9E3D0E0ADCF8091EF0286FFA9CFCB
:100FD000CAE2D0E0A6CF8091EF0286FFA2CFC1E3A4
:100FE000D0E09FCFCF3BD10508F6C85AD0E0CC0F58
:100FF000DD1FCE5DDE4F0990D881C02DD46491CF26
:10100000C11540E2D40758F4C11581E0D80708F0B3
:1010100088CFC03FD10508F4A9CFD06582CFC115D4
:1010200020E4D20708F4A2CFDF70D06A7ACFC115CE
:1010300035E5D30718F5C11544E5D40708F084C099
:10104000C11583E5D80708F06BC0C11522E5D207AA
:1010500008F461C0CE018370992721E030E002C01E
:10106000220F331F8A95E2F7C695C69580E2C89F86
:10107000E0011124C22BD32BDC6853CFC11539E515
:10108000D307A8F4C11548E5D40708F062C0C1151C
:1010900086E5D80708F06ACF8C2F0E94F806C82F83
:1010A000D0E0DC2FCC27CC27DF71D0623ACFC1153E
:1010B0002AE5D20708F452C0CE019056811590421D
:1010C00008F054CF8D2F8F710E94F80690E0982F72
:1010D000882788279F719C012C2BE901E6CFC55AF0
:1010E000D0E0C15EDE4FC881D0E0D0641ACFCE011F
:1010F0008370992721E030E002C0220F331F8A95C8
:10110000E2F7C695C69540E2C49FE0011124C22BC8
:10111000D32BDD6806CFDC2FCC27C16FD06A01CF7F
:10112000CE018370992721E030E002C0220F331FE7
:101130008A95E2F7C695C69540E2C49FE001112466
:10114000C22BD32BDA68EDCEDC2FCC27C46FD06A4C
:10115000E8CEDC2FCC27C06FD06AE3CE8C2F8F7007
:101160000E94F80634E0D695C7953A95E1F7CF701E
:101170009C2FEC01D069D5CEC2EED0E0D2CEC0EE2D
:10118000D0E0CFCEC6EED0E0CCCEC5E3D0E0C9CE25
:10119000809114028111109214020895809590910B
:1011A000F50298239093F50208958091F1019091B2
:1011B000C001981301C008958F5F8770FACF9330F4
:1011C00080F5843070F544E0949F90011124820FE3
:1011D000932F911D682F677023E0969587952A9528
:1011E000E1F7FC01EE0FFF1FE80FF91FEC54FE4F73
:1011F00050E040E080E0219130E0062E02C03695BC
:1012000027950A94E2F721703327042E01C0220F9C
:101210000A94EAF7822B4F5F5F4F4330510559F72D
:10122000089580E00895933098F5843088F544E07F
:10123000949F90011124820F932F911D282F2770C6
:1012400041E001C0440F2A95EAF723E0969587957F
:101250002A95E1F7FC01EE0FFF1FE80FF91FEC5490
:10126000FE4F90E080E070E05191DF0111979B010B
:10127000082E02C0369527950A94E2F72170219531
:101280002527242325272C9301968330910561F788
:1012900008958093F1027093F3026093F2028091BB
:1012A0001A038430F9F48093E9008FEF9091E800FD
:1012B000815095FD06C095ED9A95F1F700008111DA
:1012C000F5CF8091E80085FF0DC050E040E063E07D
:1012D00070E081EF92E00E9430038091E8008E7709
:1012E0008093E8000895BC0184E00E9449090895B4
:1012F000BC0183E00E94490908959C0184E0809329
:10130000E9009FEF8091E800915085FD06C085EDD2
:101310008A95F1F700009111F5CF8091E80085FFE3
:101320000CC050E040E066E070E0C9010E9430036C
:101330008091E8008E778093E8000895CF93DF9343
:10134000EC0180911E018823B1F18091EF0287FFAB
:1013500032C060E284E08093E9008FEF9091E80072
:10136000815095FD06C095ED9A95F1F70000811129
:10137000F5CF8091E80085FF1BC080911E0170E0D1
:1013800050E040E0811104C050E040E068E070E0CF
:10139000CE010E9430038091E8008E778093E800B0
:1013A00080E2FE01A8EFB2E001900D928A95E1F78C
:1013B000DF91CF91089568E081E0CDCF8091DF0289
:1013C00080FD0AC0EFE3F2E01182108212823396B0
:1013D00052E0EB37F507C1F7539A3BB1377F2BB19A
:1013E00028604FB7F8948FE392E0FC015191CF0150
:1013F00068E02BB9000000C057FF3BB9550F000053
:1014000000C000C000C03BB900C06A9591F7F2E08F
:101410008B379F0751F74FBF8FE594E00197F1F7A6
:1014200000C000000895EF92FF920F931F93CF9397
:10143000DF938C01CFE3D2E0F12CE12CF801948111
:101440006091E1028091E002FAE0EF16F104ECF421
:101450009923E9F09E014091E2020E940D052FEFD1
:10146000E21AF20A239684E1E816F10439F70E94A1
:10147000DE09F801848190E00196817099278483C8
:10148000CDB7DEB7E6E00C945B23992319F39E01F8
:1014900040E0E3CFB0E0A0E0E0E5FAE00C943923CF
:1014A000EC014C81042F10E09801D8010E94DA244D
:1014B0009B01AC010E94A5244B015C01E0E2F0E03D
:1014C000E01BF10BA5E5B0E0AC019B010E94A52457
:1014D0006B017C019F01DF010E94B9239B01AC01DC
:1014E0000E94B0249B01AC01280D391D4A1D5B1DD3
:1014F000C701B6010E94B824F22E822F90E039E293
:101500003F1598F143E0249F9001112435952795CC
:10151000122F10959FE3C92E92E0D92E00E085E5A9
:10152000E82EEF188E2D01FD8F2D9601412F609131
:10153000E1020E940D050F5F53E0C50ED11C04317E
:1015400089F70E94DE099C8181E0992319F090328D
:1015500019F48FEF80931D0180911D01890F8C83F9
:10156000CDB7DEB7ECE00C94552325E530E0A901BA
:10157000481B590BCA019A01220F331F280F391F2C
:1015800037FFC4CF2F5F3F4FC1CF0F931F93CF9330
:10159000DF93CFE3D2E0FE011182108212823396F4
:1015A00082E0EB37F807C1F710E000E080913D02E0
:1015B000082E000C990B081719078CF180911C015B
:1015C000082E000C990B801791074CF19E01409159
:1015D000E2026091E1028091E0020E940D050F5F3E
:1015E0001F4F23960431110509F70E94DE098091EF
:1015F0001B0190913D02980F90933D0220911C0198
:10160000280F20931C01121614F493311CF08195BD
:1016100080931B01DF91CF911F910F910895198243
:1016200018821A82DCCFB0E0A0E0E9E1FBE00C9484
:101630003C23FC018281DD24DA9480FD02C0DD249C
:10164000D3940FE312E0D0E0C0E024E1B22EF80121
:1016500011821082128294E0E92EF12CC12C80912B
:101660003C028C0D8531C4F16B2D0E947623892FAD
:10167000082E000C990B8C179D0791F48091E202C3
:101680008E9DA0018F9D500D112455954795559520
:10169000479598016091E1028091E0020E940D055A
:1016A000CD0CF1E0EF1AF108D1F621960D5F1F4F36
:1016B000C431D10561F60E94DE0980913C0291E0BF
:1016C000D91210C081110CC083E180933C02CDB7C8
:1016D000DEB7E9E00C94582387FFCACF8C5EC8CFF1
:1016E0008150F3CF90E00196BE010E949823EDCF88
:1016F000EF92FF921F93CF93DF93EC018FE3E82EDD
:1017000082E0F82E10E08C8197014091E202609116
:10171000E102810F0E940D05145F83E0E80EF11CC9
:10172000103F89F70E94DE099A818C8190FF08C0E2
:101730008F5F8C83DF91CF911F91FF90EF90089581
:101740008150F7CF9091DF0290FF0CC0EFE3F2E001
:10175000818360834283339692E0EB37F907C1F7C8
:101760000E94DE090895A3E0B0E0E9EBFBE00C94F1
:1017700041238C0180913E0281110AC09E012F5F9E
:101780003F4F4FEF6FEF0E940D058A8180933E021D
:10179000F8016481613069F080913E0240E0662387
:1017A00061F040E0623011F440913E0280E060E080
:1017B00004C060913E0240E080E00E94A20BF8016C
:1017C000848190E0019663E070E00E949823848316
:1017D0002396E4E00C945D23A3E0B0E0E2EFFBE0AD
:1017E0000C9443239091DF0290FF0AC09E012F5F6B
:1017F0003F4F0E940D054B8169818A810E94A20B97
:101800002396E2E00C945F23CF93DF93EC01EFED9E
:10181000F2E0438162818C810E94EC0B8C818F5FAE
:101820008C83DF91CF910895CF93DF93EC01EC810E
:10183000F0E0E257FC4F4491EFEDF2E062818181EC
:101840000E94EC0B8C818F5F8C83DF91CF91089588
:10185000CF93DF93C7E8D0E060E0CE010E9452242E
:101860002196C11584E0D807B9F7DF91CF9108958B
:101870001F93CF93DF93122F8430E0F46330D0F4C2
:101880004430C0F498E0699FE001112450E0440F17
:10189000551FC40FD51F98E1899FC00DD11D11247C
:1018A000632FCE0187960E945224612FCE01889625
:1018B0000E945224DF91CF911F910895AF92BF9261
:1018C000CF92DF92EF92FF921F93CF93DF938EE838
:1018D000C82E84E0D82ED0E07601C0E014C0F50117
:1018E00025913491412F6C2F8D2F0E94380C82E06E
:1018F000A80EB11C1F5F143091F788E0E80EF11CB0
:10190000CF5FC33019F0570110E0E9CFDF5F88E106
:10191000C80ED11CD43001F7DF91CF911F91FF90F9
:10192000EF90DF90CF90BF90AF900895CF93C82FE6
:101930006FEF811163E283E290E00E9452246FEF27
:10194000C11164E084E290E00E9452246FEFC11163
:1019500069E285E290E00E945224CF91089580E0F0
:101960000E94960C60E086E290E00E9452240E9461
:101970005E0C0E94280C81E00E94960C08950F9343
:101980001F93CF93DF93843030F5633020F54430DC
:1019900010F528E0629F8001112450E0440F551F8C
:1019A000040F151F38E1839F000D111D1124C8017C
:1019B00087960E943E24C82FD0E0DC2FCC27C80198
:1019C00088960E943E249E01282BC901DF91CF9169
:1019D0001F910F91089590E080E0F8CF462F84305A
:1019E00040F4733030F4643020F4672F0E94BF0C51
:1019F000089590E080E00895CF92DF92FF920F93D8
:101A00001F93CF93DF936C01009124038091150203
:101A1000082BC7E0D0E010E0FC2EC8010C2E02C05D
:101A2000959587950A94E2F780FD0CC02197A0F761
:101A3000F12C8F2DDF91CF911F910F91FF90DF90AF
:101A4000CF900895B6018C2F0E94EE0C0E943B07A8
:101A5000019761F3EECFCF93DF93EC010E94FC0C72
:101A6000BE010E94EE0C0E943B07DF91CF910895CA
:101A7000FC0183819481892B29F0808191818923C4
:101A80008F3F51F480E00895843FE1F717C0883E0E
:101A9000A8F0813FB9F712C0808191810E942B0D7F
:101AA00092959F70963099F358F4925F9F709230A0
:101AB00048F7803F19F040F7883E20F781E008950D
:101AC0009A5FF4CF83E290E00E943E24833289F44F
:101AD00084E290E00E943E24843059F485E290E054
:101AE0000E943E2491E0893209F090E0892F8170B4
:101AF000089580E0FCCFB0E0A0E0E1E8FDE00C94C8
:101B00003523FC016280448081E08483EEE8F3E0C9
:101B10007490EDE0F4E0E491CBE7D2E03FE3E32E14
:101B200032E0F32E4FEDC42E42E0D42E52E0A52E2B
:101B3000BB24B39488248A94912C55245A94E71991
:101B40000E2F10E082E0861530F08091E00288834D
:101B50008091E1028983411016C01B821A8297018D
:101B60004A81698188810E940D05259683E0E80EEF
:101B7000F11CCC16DD0631F70E94DE09CDB7DEB7C9
:101B8000E0E10C9451238B818823E9F081508B8311
:101B9000859DC00111246C8170E00E948423FB01AB
:101BA000FF27E257FC4F8491E82FE719E59DC0011C
:101BB0001124B8010E9484238091E202689FB00141
:101BC00011247A83CCCF0E9414242091E20226951E
:101BD00021582A9DA0012B9D500D1124452F5527DA
:101BE000841795070CF0BBCF82E0861588F40E941D
:101BF0001424B4010E94982388830E941424209105
:101C0000E1022695622F70E00E949823280F298315
:101C10001A828091E202893C20F088EC8C838B83CD
:101C20009ECF8431D8F784E1F9CFCF92DF92EF9243
:101C3000FF926B017C010E94FE04B701A60188E0BF
:101C400090E00E946424FF90EF90DF90CF90089581
:101C5000A3E0B0E0EEE2FEE00C943623F82E762E00
:101C6000E42E622E9091DF0290FF29C0E92FE695C5
:101C7000AE2FB0E0A95ABE4F8C9180933A029E7F5E
:101C8000923009F59E012F5F3F4F8F2D0E940D0569
:101C90004B8169818A810E94A20BF092E0027092CE
:101CA000E102E092E202662051F06091DF02709161
:101CB000E0028091E1029091E2020E94150E2396CB
:101CC000EFE00C945223823019F4E090E202E5CF69
:101CD000863019F4F090E002E0CF8930D9F38931F1
:101CE000E1F6E9518E2F8170582EE695F0E0E75726
:101CF000FC4FE4910E2F10E08FE3C82E82E0D82E27
:101D0000B12CA12C94E1892E912CC501B4010E9423
:101D100084238F2D511013C0860F96014E2D672DF1
:101D20000E940D05A00EB11E83E0C80ED11C8BE7EA
:101D3000C81682E0D80649F70E94DE09AECF861B9E
:101D4000ECCFEFEDF2E0438121E1421B08F440E0EB
:101D500021E0628181810E94280E0895EFEDF2E07A
:101D6000438121E1420F08F44FEF21E0628181813C
:101D70000E94280E0895EFEDF2E0628121E1621BDE
:101D800008F460E021E0438181810E94280E0895DB
:101D9000EFEDF2E0628121E1620F08F46FEF21E0E4
:101DA000438181810E94280E0895EFEDF2E0818148
:101DB00021E04381628188500E94280E0895EFED52
:101DC000F2E0818121E043816281885F0E94280ED8
:101DD00008958091E302882319F081508093E302F3
:101DE0006091DF027091E0028091E1029091E20245
:101DF0000E94150E08958091E302833018F48F5FDE
:101E00008093E3026091DF027091E0028091E10231
:101E10009091E2020E94150E08959091DF0290FFCA
:101E20002CC0917081112AC092609093DF026623CA
:101E300051F06091DF027091E0028091E102909197
:101E4000E2020E94150E6091DF02669570E04BE0A1
:101E500050E080E191E00E942424892BB1F010929F
:101E60003B0281E08093370220E04091E2026091E2
:101E7000E1028091E0020E94280E08958B3210F05A
:101E80009465D3CF880F982BD0CF81E080933B020D
:101E90000E9488049093350280933402E2CF8091AF
:101EA000DF028695815009F48AE261E00E940D0FFD
:101EB00008958091DF0286958F5F8B3208F081E074
:101EC00061E00E940D0F08959091DF0290FF08C01D
:101ED0009695981728F0961718F40E94590F0895B0
:101EE00061E00E940D0F0895EFEDF2E083E0808342
:101EF00011828FEF8283838314826081718182815A
:101F000093810E94150E08958091F502909113021D
:101F1000892B80939401909114029923A1F0892B2D
:101F20008093940180911E018823E1F18091EF025A
:101F300087FF38C08EE1E6E9F1E090E08150A0F53E
:101F400091110E94C80840E250E063EF71E084E91B
:101F500091E00E943124892B21F180E2E4E9F1E053
:101F6000A3EFB1E001900D928A95E1F7E091E602CE
:101F7000F091E7023097A9F080911E01882359F073
:101F80008091EF0287FF07C08091940180939501B3
:101F900086E0809394010280F381E02D84E991E052
:101FA0000995089586E0C7CF2191222339F29F5FDA
:101FB000C5CF90E080E00E94D40490E080E00E94D1
:101FC000BE04109213020E94840F86E0EEE2F2E05B
:101FD000DF011D928A95E9F71092280210922702DC
:101FE000109229020E94A3050895809324030E9461
:101FF000D90F089580912403982F9670963021F47C
:1020000088600E94F50F0895877FFBCF21E030E0C4
:1020100001C0220F8A95EAF720958091240382233C
:102020000E94F50F08959091F20180958923809385
:10203000F201282F277091F4282F082E000C330B63
:102040009217130659F09091F00292FF07C0859500
:10205000859585950E9406101092F2010895CF9300
:10206000C091F002C2FB992790F9981791F080FB7C
:10207000C2F9C093F0026091EF0284E090E00E9408
:1020800052246C2F82E290E00E94522482E00E944F
:102090001310CF91089521E030E001C0220F8A95FE
:1020A000EAF780912403822B0E94F50F0895809314
:1020B00015020E94D90F0895882321F00E94CE08AE
:1020C0000E94840F0895882339F09091F502982B8F
:1020D0009093F5020E94840F0895882391F19CEF5C
:1020E000980F913A40F4682F84E991E00E9494049B
:1020F0000E94840F089590E2980F983050F48770F2
:1021000091E001C0990F8A95EAF7892F0E94CE08C5
:10211000EFCF9BE5980F933028F490E080E00E9489
:10212000D404089598E5980F973128F490E080E062
:102130000E94BE040895803F20F00E94CA050E94BC
:10214000A3050895CF93C82F882309F442C08CEFCC
:102150008C0F813A08F065C080911E018823D9F167
:102160008091EF0287FF37C0EC2FE695E695E69564
:10217000F0E0EC56FE4F828190E04C2F477021E05A
:1021800030E002C0220F331F4A95E2F782239323E7
:10219000892B61F06C2F84E991E00E9494040E94E5
:1021A000840F23C08091EF0287FF23C0EC2FE695B8
:1021B000E695E695F0E0EC56FE4FC77021E030E082
:1021C00001C0220FCA95EAF78281822B82830E9486
:1021D000840FCF910895E6E9F1E08CE991E0219137
:1021E000C217C1F28E179F07D1F780911E0181118E
:1021F000D9CFA6E9B1E0EFEF80E09D91C91739F39F
:10220000EF3F19F4911101C0E82F8F5F8630A9F7D5
:10221000EF3FE9F20E2E000CFF0BEC56FE4FC2838F
:10222000D6CF80E28C0F883068F4C77021E030E0B0
:1022300001C0220FCA95EAF78091F502822B8093A4
:10224000F502C5CFEBE5EC0FE33040F4F0E0E15EE2
:10225000FE4F808190E00E94D404BBCFE8E5EC0FF4
:10226000E73150F4F0E0EE0FFF1FEE5DFE4F80818E
:1022700091810E94BE04ADCFC03F08F4AACF8C2F3D
:102280000E9485060E94A305A4CF1F93CF93DF93DE
:10229000182FEB010E94A210209739F4812F0E9481
:1022A0006D10DF91CF911F9108958FE99FE0019705
:1022B000F1F700C000002197EFCF68EE7EEF90E0CD
:1022C00080E00E94702460E082E090E00E9452244E
:1022D00060E083E090E00E9452241092150260E0DA
:1022E00084E090E00E94522464E082E290E00E9448
:1022F000522460E085E090E00E94522460E086E095
:1023000090E00E9452246FEF87E090E00E945224F8
:1023100040E050E0BA0188E090E00E94642460E070
:102320008DE090E00E94522440E050E0BA0188E144
:1023300090E00E94642460E087E190E00E945224D3
:1023400040E050E0BA018CE190E00E94642470E02B
:1023500060E080E290E00E94702440E050E0BA012A
:1023600088E190E00E94642480E00E94960C0E9424
:10237000AF0C40E050E0BA018FE090E00E9464248E
:1023800040E050E0BA0183E190E00E9464240895A7
:1023900080911E01E6E9F1E0882361F08091EF026F
:1023A00087FF08C08EE1DF011D928A95E9F70E9440
:1023B000D90F089586E0F7CFAAE2B0E0E2EEF1E1AE
:1023C0000C9442238CE193E02091F100DC012D93E9
:1023D000CD01B3E084329B07B9F780911D038330B0
:1023E00009F472C0B8F4813009F449C0823009F4AC
:1023F000B5C08091E80083FF8DC280911C0390914D
:102400001D039A3008F086C2E92FF0E0E551FB4D3C
:102410000C94AC238A3009F490C08B3009F471C05D
:10242000893039F780911C03813219F7809120039C
:1024300090912103009711F00297D9F68091E8005E
:10244000877F8093E8008091E80082FF38C09091F8
:10245000F3008091F200029731F48091F100813015
:1024600011F0863021F48091F1008093F702809181
:10247000E8008B778093E8000E945A03BACF8091DE
:102480001C03813A09F0B5CF8091E800877F8093E3
:10249000E8008091200390912103892B61F460E290
:1024A00088EF92E070E00E9406048091E8008B774C
:1024B0008093E8009ECF60E090E080E0F3CF8091D1
:1024C0001A038111C0CF95CF80911C03813A09F086
:1024D00090CF8091200390912103892B09F089CF1F
:1024E0008091E800877F8093E8008091E80080FF7A
:1024F000FCCF80911E018093F1008091E8008E77DF
:10250000B9CF80911C03813209F073CF80912003F1
:1025100090912103892B09F06CCF8091E800877F8F
:102520008093E8000E945A0380911E0380931E014D
:102530001092F5020E94C8115CCF80911C03813279
:1025400009F057CF8091E800877F8093E8000E94D0
:102550005A0380911F038093F6024BCF80911C0396
:10256000813A09F046CF8091E800877F8093E800A8
:102570008091E80080FFFCCF8091F602BCCF8038CC
:1025800099F0823809F0C6C1809120038F7087309E
:1025900008F0C0C18093E9008091EB0085FB88279B
:1025A00080F91092E90006C08091180390911903F8
:1025B000911182609091E800977F9093E80080935A
:1025C000F1001092F1008091E8008E779FC188237E
:1025D00009F48DC1823009F09DC180911E038111E3
:1025E00090C1809120038F702FEF280F263008F0C4
:1025F00091C18093E9002091EB0020FF82C19330CC
:1026000031F48091EB0080628093EB007AC190916D
:10261000EB0090619093EB0021E030E001C0220FCD
:102620008A95EAF72093EA001092EA008091EB0085
:102630008860EACF81116EC110911E031F778091CF
:10264000E3008078812B8093E3008091E800877F0E
:102650008093E8000E945A038091E80080FFFCCF3D
:102660008091E30080688093E30082E0111183E0B1
:1026700080931A034FC18058823008F04BC12091DB
:102680001E0330911F032C3DE3E03E07A1F583E0DC
:102690008A838AE289834FB7F894DE01139620E09B
:1026A0003EE051E2E32FF0E050935700E49120FF29
:1026B00003C0E295EF703F5FEF708E2F90E0EA303D
:1026C000C0F0C7968D939D932F5F243159F74FBF6C
:1026D0008091E800877F8093E8006AE270E0CE0195
:1026E00001960E9406048091E8008B778093E800B1
:1026F00011C1C096E7CF8091200390912103432F11
:1027000055274330510509F44AC078F54130510549
:1027100009F47AC08BE590E0EEEEF4E0423051052A
:1027200009F0F8C02091E800277F2093E80020916D
:102730002203309123038217930708F49C0140E0A1
:102740002115310509F065C0411163C08091E80091
:1027500082FDC9CF80911A03882329F2853019F2AE
:102760008091E80083FFF2CFBECF4132510509F4DA
:102770003CC04232510509F0CDC08330910508F0CC
:10278000C9C0FC01EE0FFF1FEB57FE4F0190F08117
:10279000E02D8E579E4FDC018C9190E01AC03327BC
:1027A00021303105D1F02115310561F0223031059C
:1027B00009F0B0C0EBE5F5E0E4918E2F90E0EBE599
:1027C000F5E007C0EDE7F5E0E4918E2F90E0EDE74E
:1027D000F5E0009709F49EC0A5CFE5E6F5E0E491A9
:1027E0008E2F90E0E5E6F5E0F4CF8330910508F018
:1027F00091C0880F991FFC01E557FE4F0190F081B1
:10280000E02D89E090E08ECF82E190E0E9E4F5E010
:1028100089CF80911A03882309F465CF853009F4A4
:1028200062CF8091E80083FD5ECF8091E80082FD59
:102830008DCF8091E80080FF83CF9091F30080914D
:10284000F2002115310519F08830910550F041E072
:10285000089709F040E08091E8008E778093E800C7
:102860006FCF44914093F100319621503109019688
:10287000E8CF803809F04EC08091E800877F8093D0
:10288000E80080911B038093F1009DCE811142C02E
:1028900010911E031230F0F58091E800877F80933D
:1028A000E80010931B030E945A03112311F084E0E7
:1028B00005C08091E30087FDFACF81E080931A0381
:1028C00042E061EC81E00E94790342E261EC84E045
:1028D0000E94790342E261EC82E00E94790342E2C5
:1028E00060EC83E00E94790380911A0313C0809109
:1028F0001E03813079F481E0933009F080E0809309
:1029000019031092E9008091E800877F8093E80026
:102910000E945A038091E80083FF0AC08091E8007A
:10292000877F8093E8008091EB0080628093EB00CA
:10293000AA96E3E00C945E231092F5020E94C8115F
:102940002FEF84E39CE0215080409040E1F700C0ED
:10295000000088E19AE00FB6F894A8958093600093
:102960000FBE90936000FFCFA5E0B0E0EAEBF4E18A
:102970000C9434237C01FC0183819481892B31F0F8
:102980008081918189238F3F09F08EC42596E1E1F2
:102990000C9450230E94FC0C182F682F89819A8177
:1029A0000E94130969817A81812F0E94EE0C8C01AB
:1029B000F7018281882309F408C4C80182519F4528
:1029C000409708F0F1C38FEF93E00E943E248111FD
:1029D00025C0025157E8852E912C011131C01C826F
:1029E0001B82442443944AE0342E84010F5F1F4F1E
:1029F000C4010E943E2489831A82882379F09FEFC4
:102A0000980F933058F58A83498232E0830E911CE7
:102A1000C8010E943E248B83811121C08091F20164
:102A2000877009F4B3CFF7018281882309F4AECF10
:102A30008091F00282FFAACF82E00E941310A6CFFD
:102A40008114F4E09F0651F3C4010E943E248111D9
:102A500001C001502FEF821A920ABFCF48018E01A8
:102A60000F5F1F4FF8012081222309F4BECF2130D0
:102A700009F047C091818281913059F40E5F1F4F58
:102A800070E060E0893311F460E570E00E94451168
:102A900006C0923039F40E5F1F4F0E94A2100F5FE4
:102AA0001F4FE0CF933029F40E5F1F4F0E946D102F
:102AB000F6CF943019F00F5F1F4FF1CF0E5F1F4F0D
:102AC00030E020E0B8016F5F7F4FF8014181805313
:102AD000990B8A30910550F02150310900F38FE9AC
:102AE0009FE00197F1F700C00000F6CF329EF001A1
:102AF000339EF00D11249C012E0F3F1F842F8B015C
:102B0000E1CFE22FF0E0EC50FE4F5490822F8695FB
:102B10008695869590E0FC01EC51FE4F64902770FD
:102B2000712C022E02C0759467940A94E2F7E1E0DA
:102B30006E227724FC01EC52FE4FA490B12C022EA1
:102B400002C0B594A7940A94E2F7F1E0AF22BB2447
:102B5000FC01EC53FE4FC490D12C02C0D594C79415
:102B60002A95E2F721E0C222DD246114710419F0F4
:102B700081EE0E94A210A114B10419F086EE0E9409
:102B8000A21039E370E060E0531202C060E570E02B
:102B9000852D0E944511A114B10419F086EE0E9402
:102BA0006D106114710419F081EE0E946D10C11452
:102BB000D10409F474CF70E060E08CE267CF81E06B
:102BC0000E944B100E94FA0F29CF81E00E9406104C
:102BD000F9CF82E0F5CF82E0F9CF043CFCE51F0796
:102BE00009F494C045ED5EE06FED7EE0053C2CE518
:102BF000120709F011C30E94F70410CF093C3CE50D
:102C0000130709F492C070F4073CECE51E0709F4C1
:102C100087C048EC5EE06BEB7EE0083CFCE51F07FC
:102C200051F3FAC20A3C2CE5120709F483C049EEBD
:102C30005EE06BEF7EE00B3C3CE51307E1F2ECC29B
:102C4000013D8CE5180709F488C0B0F40E3CECE5B2
:102C50001E0709F47CC008F477C00F3C2CE512076E
:102C600009F478C06EE089E0003D3CE5130709F007
:102C7000D3C20E94640FD2CE043D8CE5180709F43C
:102C800072C078F4023DECE51E0709F469C061E00A
:102C900088E1033DFCE51F0709F0BEC20E940D0F4D
:102CA000BDCE053D2CE5120709F460C06AE285E25D
:102CB0000D351007F1F2B0C28091DF0280FF1BC01A
:102CC0008E7F8093DF026091DF027091E00280913D
:102CD000E1029091E2020E94150E10923B028FEFEA
:102CE00090E7E2E081509040E040E1F700C0000052
:102CF0000E94DE0993CE81608093DF0261E08695B9
:102D0000CDCF4FE45FE069E57FE075CF49E55FE057
:102D10006FE47FE070CF4FED5EE065ED7EE06BCF5E
:102D20004BEB5EE068EC7EE066CF41EA5EE06EEA87
:102D30007EE061CF4EEA5EE061EA7EE05CCF4BEF81
:102D40005EE069EE7EE057CF61E081E0A7CF65E00D
:102D500082E08FCF68E086E08CCF64E18FE089CF9E
:102D600067E185E186CF62E289E183CF61E083E2BA
:102D700095CF0B35FDE51F0758F401152CE512071B
:102D800091F00E3D1C4509F047C20E945D1109C03B
:102D90000C358DE51807B1F0F8F0073A1D4509F03C
:102DA0003BC20E949C141092F5020E94C811FFEFD2
:102DB00024E33CE0F15020403040E1F700C0000047
:102DC0000E9468048091F00282FB882780F991E0DC
:102DD00089270E942F1020C280E0FBCFC8010E94EB
:102DE000DF08D82E28C2212F2F70C22E107F19F095
:102DF000C29490EFC922DD20B9F0CC2069F080E2C6
:102E0000800F883010F0811009C08091F502C82A27
:102E1000C092F5020E94840F802F4AC08091130255
:102E2000C82AC0921302F6CF802F0E946D10CC20CA
:102E300009F440C0005E083010F0811004C08C2DF1
:102E40000E94CE0806C0C09480911302C822C0928E
:102E500013020E94840F2EC0312F3F70C32E107FAB
:102E6000103219F0C29480EFC822882089F081E0E6
:102E7000881609F467C0DD2009F471C0BB2009F48D
:102E800067C0F701858180FFC7CF8F70858360C0E1
:102E90002091F00222FD34C0DD2061F1CC2039F018
:102EA0008091F502C82AC092F5020E94840F80E04A
:102EB0000E94A210E92DE850FF0B349710F40E94F5
:102EC000EA04AA2009F462CD8091F20180FD5ECD72
:102ED000F70112828595859585950E944B10C70153
:102EE0000E94B4148091F2018595859585950E9484
:102EF00006104CCD80E00E946D10CC20D9F29FCFFF
:102F0000DD2099F090911402892F8C29B11003C013
:102F10000E946310CFCFE1E0BE12FACF22FFCACFEA
:102F2000981741F280931402C5CFB11006C00E94D9
:102F3000C8088C2D0E945C10BDCFF1E0BF1609F4CB
:102F4000B9CFF5CFDD2031F025E02B1508F4B2CF55
:102F50008C2DDECF34E03B1508F4ACCFEACFBB209C
:102F600041F3F9E38F1219C12FEF37EE83E02150BF
:102F700030408040E1F700C000000FC1812F8695EE
:102F80008695837061F0813009F094CFC801937009
:102F9000D11002C090E080E00E94BE048BCFC80137
:102FA0009370D11002C090E080E00E94D40482CFE0
:102FB000802FDD2029F00E9485060E94A3057ACF8C
:102FC0000E94CA05FACF812F837089F5D11072CF84
:102FD000402F429546954770440F440F802F8F70C5
:102FE000042E01C0880F0A94EAF7202F207104FFF5
:102FF00007C02FE030E001C0220F4A95EAF7209584
:10300000169516951370123069F050F43091150230
:10301000113029F0822B83230E9457104BCF832B32
:10302000822BFACF282B809115028227F5CF869527
:10303000DD2011F0812F8170882309F43BCF402FD0
:10304000429546954770440F440F802F8F70042E91
:1030500001C0880F0A94EAF7202F207104FF07C0EF
:103060002FE030E001C0220F4A95EAF7209516952F
:1030700016951370123069F050F43091240311301A
:1030800029F0822B83230E94F50F14CF832B822BF0
:10309000FACF282B809124038227F5CF1F70DD20E3
:1030A00029F0812F0E944B10802F32CF802F0E9459
:1030B0005C10812F0E940610FDCE802F92EF8916A2
:1030C000B1F1981570F0E0EF8E16D1F0F1EF8F1698
:1030D00091F0DD2009F45CC0B1109ECE812F8F717C
:1030E0002AC023EF821651F134EF8312F2CF809180
:1030F000F00282FD2FC0812F8F71DD20D9F21BC01D
:10310000DD2081F084E08B1508F4D4CE1F7181E0BE
:1031100090E0012E01C0880F0A94EAF790912403F1
:103120008927B1CF95E09B1508F4C4CEEFCF812F4E
:103130008F71D110BFCF0E944B10BCCE80E0DD203C
:1031400009F4A1CF1F7181E0012E01C0880F0A94FC
:10315000EAF799CFDD2089F01F71812F0E944B1073
:103160008091F00282FF07C0E8E01E9FC001112499
:1031700083608093F201812FDECF81E00E941310E3
:10318000F1E0FB1508F096CE82E00E94131092CE7B
:10319000BB2039F0893309F4E7CE802F0E946D10EF
:1031A00089CE812F8F7186CF0031FFE51F0709F48B
:1031B00006CD01312FE5120709F40BCD0A358DE557
:1031C000180709F0D6CD81E004CE00313FE51307A2
:1031D00009F4FBCC01318FE5180709F4FCCC809190
:1031E000F50282720C3C9CE5190709F4A8CD08F0A1
:1031F00027CD063CFCE51F0709F48DCD08F0FECC79
:10320000033C3CE5130709F47CCD08F0E6CC023C16
:10321000ECE51E0709F450CDF70182810081118190
:10322000882309F4DBCDC8010E94FC0CD82E682F3E
:10323000C8010E941309B8018D2D0E94EE0C0E9456
:103240003B078C01882EF701D280B580B2943FE015
:10325000B3228091F2018770C1F0AD2CDD20B1F076
:10326000812F807F803421F080E2800F883068F0E9
:103270008091F00282FF09C082E00E9413108091C9
:10328000F2018770AA24A3948111A12C912E92940B
:103290002FE09222FBE0F91508F40CCEE92DF0E0C6
:1032A000EB50FB4D0C94AC2385E0DE0111960190B0
:1032B0000D928A95E1F7F701228189819A81211186
:1032C00069CB0E94DF08182F6DCB1F93CF93DF933C
:1032D0008091BF01807F09F049C08091BC018823A3
:1032E00009F444C08091F101D091C0016091BA010C
:1032F0007091BB01A091BD01B091BE01C62FC72343
:1033000016E0D81799F190E0109711F0CF3F19F41B
:1033100001968770F6CF189F9001199F300D1124E8
:10332000F901EF53FE4F41814713F2CF408146131D
:10333000EFCF42814111ECCF438154814A1B5B0B9B
:10334000483C510528F78091BF018F7080618093C0
:10335000BF01F901EA53FE4F80818F708061808345
:103360008AEB91E00E94B4140E94D508DF91CF91BE
:103370001F910895A1E1B0E0E0ECF9E10C943B234A
:103380008C0185E0F801DE011D9601900D928A9571
:10339000E1F7F801E2808AEBA82E81E0B82E609177
:1033A000BD017091BE016115710509F426C19091AE
:1033B000BA014091BB01892F84238F3F09F41DC1BD
:1033C00020813181C380D480F090BC01F601E61BDE
:1033D000F70BFF2009F4DCC08091BF01582F507F0C
:1033E000E83CF10508F09FC051116BC0FE2C43135F
:1033F00014C0921312C0E11010C08F7080618093CE
:10340000BF01C5010E94B4148091BF01F8018583FA
:103410008F2D6196EAE00C945723C114D10429F052
:10342000822F83238F3F09F003C180E0F82FF170D2
:10343000DF2E80FF3CC08091F1014091C00156E039
:10344000841315C02D873E878D859E850E942B0D88
:10345000292F22952F702230F0F0243018F59F701C
:10346000F1F0F8019581907FD1F4D12C1EC090E04D
:10347000589FF001599FF00D1124EF53FE4F6181C9
:10348000361306C06081261303C06281E6120FC0A6
:1034900001968770D5CF9F7011F0882331F3805E3D
:1034A000883018F3C8010E94B414FD2CB1CFEE206F
:1034B00009F4AECF8091BF0181608093BF01F12CF0
:1034C000A7CF431306C0921304C0F801EE2009F4FD
:1034D00079C0C8010E94380D882309F1EE20F9F067
:1034E0008091BF01803270F02091BA013091BB0110
:1034F00038872F831986DB86CA868C87CE0107968C
:103500000E94B41486E0F801AAEBB1E001900D929C
:103510008A95E1F70E946519FF24F39479CFC801D9
:103520000E94B414F9CF51110AC08AEB91E00E94B5
:10353000B41486E0F50111928A95E9F7C0CF4313E0
:103540000FC092130DC0E1100BC0F8018583C801B4
:103550000E94B41486E0F50111928A95E9F758CFDC
:10356000C8010E94380D8823D1F2EE20C1F280916B
:10357000BF01803238F22091BA013091BB013A8309
:1035800029831B82DD82CC828E83CE010196B8CF47
:10359000E83CF105F8F6FE2CEE2009F243131FC0BB
:1035A00092131DC08091BF0180FD10C0982F907FA5
:1035B00069F0F8018583903F31F0982F907F905FFC
:1035C0008F70892B8583C8010E94B41486E0F801AE
:1035D000AAEBB1E001900D928A95E1F719CFC801ED
:1035E0000E94380D81118ECF8091BF018160809340
:1035F000BF01C8010E94B4140BCFEE2009F48FCF95
:10360000C8010E94380DF82E882309F488CF86E07F
:10361000F801AAEBB1E001900D928A95E1F7809153
:10362000BA019091BB010E942B0D0E946519F0CE4A
:1036300081E08E25FBCEA7E1B0E0E1E2FBE10C9456
:1036400042234B8B5C8B6D8B7E8B8F8B6111109229
:1036500013021A8A198A85E0FE017396DE011D960F
:1036600001900D928A95E1F786E0FE013D96DE011C
:10367000179601900D928A95E1F7CE0107960E9468
:10368000BA19882359F016E08091F1019091C00198
:10369000891345C06796E3E00C945E2386E0FE0143
:1036A0003796DE01119601900D928A95E1F78A8591
:1036B0009B85892B41F38F81988589238F3F19F34F
:1036C0002091C00130E0C90101968770992740918F
:1036D000F1014817190681F41092F5020E94C811F1
:1036E0001092C0011092F10186E0EAEBF1E0DF01F7
:1036F0001D928A95E9F7C7CF96E0929FD001939FDC
:10370000B00D1124AF53BE4FFE01319601900D92C2
:103710009A95E1F78093C0010E94D508B4CF819FAC
:10372000C00111248F539E4F0E94BA19882309F4B7
:10373000B1CF8091F10190E0019687709927809335
:10374000F101A2CF6F927F929F92AF92BF92CF92E0
:10375000DF92EF92FF920F931F93CF93DF9300D0EE
:103760000F92CDB7DEB719821A821B8200E511E0F5
:1037700094E5E92E91E0F92E99249394CC24C394F6
:10378000D12C37E5A32E31E0B32EF80181918F01C2
:103790008F3F09F448C0F894E82FE295EF70F0E00D
:1037A00021A18F70A60102C0440F551F8A95E2F730
:1037B000CA01922F982B91A392A18095892382A36D
:1037C000789400C084E5682E81E0782EDE011196A1
:1037D000692D6095F30191913F018D919D012150DB
:1037E00031099F3F09F463C0492F42954F7050E063
:1037F000FA0140A150E09F7002C0559547959A95F7
:10380000E2F740FD54C08929F9018083A614B7046A
:1038100009F7F801319780818F3F11F00E94E1068E
:10382000F0EAFA95F1F7990CE016F10609F0ADCF40
:1038300043E050E0BE016F5F7F4F89E192E00E945C
:103840003124892BB1F189819A81AB81809319024E
:1038500090931A02A0931B0281E0809318020E94A9
:10386000880490931702809316028091160290911B
:1038700017020E947904059700F143E050E069E1E6
:1038800072E084E292E00E943124892B41F1809120
:10389000190290911A02A0911B0280932402909326
:1038A0002502A093260281E01092180207C0862309
:1038B000ABCF809118028111D8CF80E00F900F908C
:1038C0000F90DF91CF911F910F91FF90EF90DF90BC
:1038D000CF90BF90AF909F907F906F90089580E0C1
:1038E000E3CF90E080E00E944C24883E9E4F19F484
:1038F0000E94620D089580E008951F920F920FB606
:103900000F9211242F933F934F935F936F937F9365
:103910008F939F93AF93BF93CF93DF93EF93FF93D7
:10392000D091E900DF708091EC00C82FC17080FD5C
:10393000C0E81092E9008091F000877F8093F0004A
:1039400078940E94DC111092E9008091F000886068
:103950008093F000CD2BCF70C093E900FF91EF91E1
:10396000DF91CF91BF91AF919F918F917F916F9197
:103970005F914F913F912F910F900FBE0F901F902D
:1039800018951F920F920FB60F9211242F933F9309
:103990004F935F936F937F938F939F93AF93BF9357
:1039A000EF93FF938091E10082FF09C08091E200D4
:1039B00082FF05C08091E1008B7F8093E1008091C0
:1039C000DA0080FF24C08091D80080FF20C0809161
:1039D000DA008E7F8093DA008091D90080FF9DC04D
:1039E00080E189BD82E189BD09B400FEFDCF81E09F
:1039F00080931A038091F402811109C00E94E002B1
:103A00000E94AB038091E20084608093E200809189
:103A1000E10080FF17C08091E20080FF13C0809119
:103A2000E2008E7F8093E2008091E20080618093CB
:103A3000E2008091D80080628093D80019BC85E0B4
:103A400080931A038091E10084FF2BC08091E200F3
:103A500084FF27C080E189BD82E189BD89B5982FA7
:103A6000917080FFFBCF8091D8008F7D8093D8002C
:103A70008091E1008F7E8093E1008091E2008F7E53
:103A80008093E2008091E20081608093E200809167
:103A90001B03882309F447C084E080931A038091B4
:103AA0001A038091E10083FF27C08091E20083FF29
:103AB00023C08091E100877F8093E10082E08093C2
:103AC0001A0310921B038091E1008E7F8093E10026
:103AD0008091E2008E7F8093E2008091E20080611D
:103AE0008093E20042E060E080E00E9479038091F0
:103AF000F00088608093F000FF91EF91BF91AF914B
:103B00009F918F917F916F915F914F913F912F91F5
:103B10000F900FBE0F901F90189519BC10921A03AA
:103B20001092F40274CF8091E30087FD93E09093AC
:103B30001A03B5CF78941F921FB61F9211248F934A
:103B40009F93AF93BF938091EB029091EC02A09171
:103B5000ED02B091EE020196A11DB11D8093EB0222
:103B60009093EC02A093ED02B093EE02BF91AF915F
:103B70009F918F911F901FBE1F9018951F921FB687
:103B80001F9211248F939F93AF93BF938091EA026A
:103B9000811113C08091EB029091EC02A091ED0293
:103BA000B091EE024196A11DB11D8093EB0290935E
:103BB000EC02A093ED02B093EE02BF91AF919F9102
:103BC0008F911F901FBE1F901895CDB7DEB7AA9793
:103BD0000FB6F894DEBF0FBECDBF85B7806885BF36
:103BE00085B7806885BF84B7877F84BF0FB6F89498
:103BF000A8958091600088618093600010926000B9
:103C00000FBE80E890E00FB6F89480936100909327
:103C100061000FBE8FED96E0909393018093920127
:103C20000E94E0020E94AB038091E20084608093D6
:103C3000E200789480911A038823A1F01091E900A2
:103C40001F709091EC00892F817090FD80E8182BF7
:103C50001092E9008091E80083FD0E94DC111F7042
:103C60001093E90082E084BD93E095BD9AEF97BD83
:103C700080936E000E94620D811102C00E94AF0C01
:103C800086EF0E94E10687EF0E94E10681E30E9431
:103C9000E10683E30E94E10686E60E94E10687E9E9
:103CA0000E94E10686EC0E94E10683E0E4E2F2E095
:103CB000DF01282F1D922A95E9F7E9E1F2E0DF0103
:103CC0001D928A95E9F70E94711C811102C00E9421
:103CD0005D1182E090E00E943E2480931F0284E008
:103CE00090E00E943E24182F82E290E00E943E2441
:103CF000982F812F9093F0028093EF020E94A21BD5
:103D0000EFE3FCE93197F1F700C000000E94A21B2D
:103D10008091240280FF08C06FEF7FEF90E080E089
:103D20000E9470240E94680483E090E00E943E2478
:103D30000E94571080911C02811133C00E94711C97
:103D4000811104C00E945D110E94740F88E090E010
:103D50000E9446246093DF027093E0028093E102A8
:103D60009093E2026E7F71F40E94740F88E090E0FD
:103D70000E9446246093DF027093E0028093E10288
:103D80009093E2020E94FE0410923B028091DF02B7
:103D900080FF04C060E086950E940D0F81E0809353
:103DA0001C0284E091E09093E7028093E60218E120
:103DB000E12EF12C00E4C02EDD24D39480911A036F
:103DC00010E102E1853009F4C8C10E94A21B909164
:103DD0002002809124029813CCC1909125028091F9
:103DE00021029813C6C19091220280912602981355
:103DF000C0C10E9488048C0180911D0290911E0216
:103E000008171907A1F08FEF89A38AA31BA20E94AC
:103E100088048160782F9DA38CA349A15AA16BA12E
:103E20008DA10E941B1B10931E0200931D02809106
:103E30003B028823D1F180913A02E091DF02E695BE
:103E4000E81BE0933602823009F0D6C1F0E0EB5770
:103E5000FD4FE4910E2F10E0F4E1AF2EFCE0BF2EF9
:103E600080913702882361F0109237020E94880403
:103E700090933502809334021092390210923802E6
:103E80000E948804E0913402F09135028E1B9F0B52
:103E90008F3F9F4750F4E00FF11FF0933502E093FE
:103EA000340284E392E0F501099586E0EEE2F2E067
:103EB000DE01119601900D928A95E1F71092300281
:103EC0001092310210923202109233028B819C8147
:103ED000892B09F44AC080912C0290912D020E94F6
:103EE00079049C0190912802992309F4B7C32531E4
:103EF0003105D8F19F3F19F09F5F909328021B81F5
:103F0000112359F00E9465069FEF11160CF491E001
:103F1000899F802D1124809330021C81112359F038
:103F20000E9465069FEF11160CF491E0899F802D89
:103F3000112480933102309130023323B1F020916B
:103F40003102222391F045EB3403C001112499235F
:103F500009F4BEC19093300245EB24039001112473
:103F6000332309F4B8C1309331028D819E81892BAE
:103F700009F44AC080912A0290912B020E94790490
:103F80009C0190912702992309F463C321353105DF
:103F9000D8F19F3F19F09F5F909327021D81112355
:103FA00059F00E9443069FEF11160CF491E0899F8F
:103FB000802D1124809332021E81112359F00E941A
:103FC00043069FEF11160CF491E0899F802D112478
:103FD00080933302309132023323B1F020913302C7
:103FE000222391F045EB3403C0011124992309F4F5
:103FF00075C19093320245EB2403900111243323C1
:1040000009F46FC13093330246E050E0BE016F5FA8
:104010007F4F8EE292E00E943124892B61F48091DF
:10402000300290913102892B90913202892B90912C
:104030003302892B11F00E94A30586E0FE01319620
:10404000AEE2B2E001900D928A95E1F70E94EA0497
:1040500090912302891769F0809323028FB7F89417
:104060004091EB025091EC026091ED027091EE02F2
:104070008FBF80911A03843009F0A0CE83E0809333
:10408000E9008091E80082FF99CE8091E80090E0FD
:1040900085FF06C00E94FF02882309F425C191E034
:1040A0008091E8008B778093E800992309F486CE0D
:1040B000E981E150E33108F090C1F0E0EF5FFA4DA3
:1040C0000C94AC2380911A03843009F11092EA0217
:1040D0000FB6F894A895E09260000FBEC092600001
:1040E00083B7817F846083BF83B7816083BF789407
:1040F000889583B78E7F83BF0FB6F894A89580917B
:104100006000886180936000109260000FBE809113
:104110001903882311F10E94A21B8091240290911F
:104120002502892B90912602892BB9F019BD09BD72
:1041300009B400FEFDCF8091D8008F7D8093D80018
:104140008091E00082608093E0008091E00081FD3A
:10415000FCCF1092F5020E94C81180911A0385309D
:1041600009F4B0CF1092F5020E94C8110E94EA042F
:104170002CCEA4E2AA2EA2E0BA2EB0E28B2EB2E0A0
:104180009B2E10E0D5010D915D01F40151904F017E
:10419000501619F15026712C66246394852D8621C2
:1041A000A1F07EA21FA391E0802F862109F490E068
:1041B00098A70E9488048160782F9AA789A74EA1AA
:1041C0005FA168A58AA50E941B1B7394660CF4E08E
:1041D0007F12E4CFF401319700831F5F133091F613
:1041E0008FB7F8944091EB025091EC026091ED0290
:1041F0007091EE028FBF1BCE863059F4F0E0EE577F
:10420000FD4FE4910E2F10E0E4E0AE2EECE0BE2E68
:1042100027CE893061F4E695F0E0E158FD4FE49156
:104220000E2F10E078E7A72E7BE0B72E19CE8F3047
:1042300061F4E695F0E0E458FD4FE4910E2F10E0B4
:1042400063E1A62E6BE0B62E0BCE853159F4F0E07B
:10425000E758FD4FE4910E2F10E055ECA52E5AE0E3
:10426000B52EFECD08E210E02AE4A22E2AE0B22EFE
:10427000883109F4F5CD833249F4E7E7F2E005919E
:10428000149143EBA42E4BE0B42EEACD04EF11E0E1
:1042900093E1A92E9AE0B92E843209F4E1CD85325A
:1042A00081F48E2F63E00E946A23E92FF0E0EC583E
:1042B000FD4FE4910E2F10E03BE7A32E3DE0B32E1F
:1042C000CFCD00ED17E08DEFA82E84E0B82EC8CD3D
:1042D000D092300241CED092310247CED0923202FB
:1042E0008ACED092330290CE00E210E0CE01019649
:1042F0005C018091E80085FD0AC08091E8008B7721
:104300008093E8000E94FF02882399F3C8CE809131
:10431000F100D5018D935D010150110951F7BFCE18
:104320001A828AE08B8324C08A81823009F488C192
:104330008330A9F0813009F050C02FB7F894609114
:10434000EB027091EC028091ED029091EE022FBF92
:104350000E94B2236B837C838D839E8309C08091EE
:1043600024028B83809125028C83809126028D8389
:1043700080911A03843009F021CD1091E9001F705B
:104380009091EC00892F817090FD80E8182B82E0DD
:104390008093E9008091E80080FF0DC050E040E08C
:1043A00060E270E0CE0101960E9430038091E80047
:1043B0008E778093E8001F701093E900FFCC8A810C
:1043C000823059F46B817C818D819E810E94B22361
:1043D00086E290E00E945224CBCF8FEF8983C8CF32
:1043E0004C816B818A810E94BF0C9827892798276E
:1043F0009E838D83BDCF2D813E8132272327322797
:104400004C816B818A810E94380CB2CF0E945E0C75
:10441000AFCF8A81813809F1A8F4803809F0A8CF9C
:104420008B81BFEF8B9FC00111246FEF70E00E9462
:104430008423462F20E06091E1028091E0020E94F7
:10444000280E96CF823859F1833809F091CF20E0B9
:104450004091E2026C818B81F2CF60E08B810E94FF
:104460000D0F9B818091DF02911111C08E7F80938F
:10447000DF0210923B02EFEFF0E722E0E150F04064
:104480002040E1F700C000000E94DE0971CF81608A
:104490008093DF0260E086950E940D0F69CF8B81CB
:1044A0008093E30265CF8A818138E1F078F4803827
:1044B00009F05ECF8091E2024FEF849FC00111248A
:1044C0006FEF70E00E9484236B8352CF823891F0AB
:1044D000833809F04DCF8091E0028B838091E10217
:1044E0008C8346CF8091DF0280FF02C086951ACF71
:1044F00080E018CF8091E30215CF6091DF027091C8
:10450000E0028091E1029091E2020E94150E30CF0C
:1045100080E18A832DCF83E08A8389E703CF0A81F4
:104520001B81102701271027CE0101965C018C808A
:10453000DC01A80DB11D4D01C80189579F4F8A1498
:104540009B0409F415CF0937B3E01B0750F40E9410
:104550003E24F50184830F5F1F4FBFEFAB1ABB0AE8
:10456000EBCFD50114961C92F6CF0A811B81102740
:1045700001271027FE0131964F01AC80A00EB12E0D
:10458000B11CC80189579F4F0A151B0509F4F0CECD
:104590000937F3E01F0728F4D40114966C910E94A8
:1045A0005224BFEF8B1A9B0A0F5F1F4FEACF0E9466
:1045B000280CDECE84E0ADCF0A811B8110270127B5
:1045C0001027FE0131965F018C80CF01880D911D6F
:1045D0004C01C80187968A149B0409F4C9CE0036A1
:1045E000110558F40E943E24D50114968C930F5F58
:1045F0001F4FFFEFAF1ABF0AECCFF5011482F7CFC0
:104600000A811B81102701271027CE0101964C013A
:10461000AC80A00EB12EB11CC8018796A016B106C1
:1046200009F4A6CE0036110528F4D40114966C9135
:104630000E945224BFEF8B1A9B0A0F5F1F4FECCFD3
:1046400086E290E00E943E241B821C821D828E83A3
:104650008FCE2B30310508F09ECCD6CC2B303105D7
:1046600008F04ACC82CC2F923F924F925F926F9289
:104670007F928F929F92AF92BF92CF92DF92EF92F2
:10468000FF920F931F93CF93DF93CDB7DEB7CA1B73
:10469000DB0B0FB6F894DEBF0FBECDBF09942A889E
:1046A000398848885F846E847D848C849B84AA8446
:1046B000B984C884DF80EE80FD800C811B81AA81D3
:1046C000B981CE0FD11D0FB6F894DEBF0FBECDBF9E
:1046D000ED010895991B79E004C0991F961708F021
:1046E000961B881F7A95C9F78095089587FB082E39
:1046F000062687FD819567FD61950E946A230EF469
:10470000919507FC81950895AA1BBB1B51E107C039
:10471000AA1FBB1FA617B70710F0A61BB70B881F51
:10472000991F5A95A9F780959095BC01CD010895E0
:1047300097FB072E16F4009407D077FD09D00E944E
:10474000842307FC05D03EF4909581959F4F0895F2
:10475000709561957F4F0895EE0FFF1F0590F491BE
:10476000E02D0994692796276927782787277827D6
:1047700008950E94DA24332312F48A1B9B0B0C94B5
:10478000C3230E94DA24B7FF0895821B930B089578
:104790008F929F92AF92BF92CF92DF92EF92FF9251
:1047A000CF93DF93EC01688179818A819B816115C8
:1047B00071058105910521F464E279ED8BE597E0BF
:1047C0002DE133EF41E050E00E94862449015A0177
:1047D0009B01AC01A7EAB1E40E94A5246B017C0116
:1047E000ACEEB4EFA50194010E94B324DC01CB012F
:1047F0008C0D9D1DAE1DBF1DB7FF03C00197A10904
:10480000B04888839983AA83BB839F77DF91CF9138
:10481000FF90EF90DF90CF90BF90AF909F908F90E0
:1048200008950E94C823089580E091E00E94C82363
:104830000895B0E0A0E08093000190930101A0935F
:104840000201B09303010895FC014150504030F043
:1048500001900616D1F73197CF010895882799273F
:104860000895FB01DC0104C08D910190801921F4B1
:1048700041505040C8F7881B990B0895F999FECF15
:1048800092BD81BDF89A992780B50895A6E1B0E060
:1048900044E050E00C947824A8E1B0E042E050E01D
:1048A0000C947824262FF999FECF92BD81BDF89AF9
:1048B000019700B4021639F01FBA20BD0FB6F89464
:1048C000FA9AF99A0FBE08950396272F0E9453244F
:1048D0000E945224252F0E945324242F0C945324E9
:1048E0000196272F0E9453240C945224DC01CB0103
:1048F000FC01F999FECF06C0F2BDE1BDF89A3196F0
:1049000000B40D9241505040B8F70895052E97FB22
:104910001EF400940E949D2457FD07D00E94B824E5
:1049200007FC03D04EF40C949D245095409530958F
:1049300021953F4F4F4F5F4F08959095809570950B
:1049400061957F4F8F4F9F4F08950E94DA24A59F56
:10495000900DB49F900DA49F800D911D112408957A
:10496000B7FF0C94A5240E94A524821B930B0895E5
:10497000A1E21A2EAA1BBB1BFD010DC0AA1FBB1F63
:10498000EE1FFF1FA217B307E407F50720F0A21BD5
:10499000B30BE40BF50B661F771F881F991F1A9442
:1049A00069F760957095809590959B01AC01BD016C
:1049B000CF010895A29FB001B39FC001A39F700DC6
:1049C000811D1124911DB29F700D811D1124911D17
:1049D0000895F894FFCFBF12E7128A14E7128A14E1
:1049E0001A133B138A1439144614F316F3162C17B2
:1049F0002C17BE17D8175A175A17E3174E185D18F9
:104A00005D1890219421DF21F021FB21062209224B
:104A100053227D22ED21ED2188228B228F22B52287
:084A2000D722DA22DC22002378
:104A28000100000065049E097D0978097309640482
:104A380001191A1B1C1D1E1F2021220102010181C0
:104A48008283E200E900EA00B500B600B700CD00B5
:104A58008301CC008A0192019401210223022402DD
:104A68002502260227022A02B300B4006F00700054
:104A7800F6F731336697C6000102020202060606FF
:104A88000909090909090F0F0F0F0F0F1515151837
:104A98001919191919191919191923242525252539
:104AA80025254022B684016201AC000005190539AC
:024AB8000500F7
:00000001FF
